:0400000002001132B7
:03000B0002007779
:0D006A00750800E4F509F50AF51102000E15
:03000E000200C528
:20007700C28D758CDB758AFF0509E4B50902050A858108C0E0C082C083C0F0C002C003C057
:2000970004C005C006C007C000C001C0D0120134850881D0D0D001D000D007D006D005D0FA
:2000B70004D003D002D0F0D083D082D0E032D2AFD2A912018C120198750D1F7510557E7882
:2000D7007F018E0B8F0C7C827D018C0E8D0F8E1F8F20AF0D740E2FF50D8C558D56AF1074E1
:2000F7000E2FF510850D08850881D0D0D001D000D007D006D005D004D003D002D0F0D083B0
:20011700D082D0E03280FEAE82AF83E5092EFEE50A3FFFC3E5099EE50A9F40F722E51170D1
:200137000A85080D75110185100822850810751100850D0822AE82AF831EBEFF011FEE4F45
:2001570070F722AE82AF831EBEFF011FEE4F60109003E8C007C00612014CD006D00780E77A
:2001770022B29190006412011E80F6B2A19000C812011E80F6E58904F589758CDB758AFF4C
:0401970022D28C22C2
:06004000E478FFF6D8FD94
:20001E007900E94400601B7A0090019F780175A000E493F2A308B8000205A0D9F4DAF275E8
:02003E00A0FF21
:200046007800E84400600A790175A000E4F309D8FC7800E84400600C7900900001E4F0A3B8
:04006600D8FCD9FAEF
:0D00110075811112019BE582600302000E53
:04019B007582002247
:00000001FF
